{
  "contractName": "loyalty_points",
  "abi": [
    {
      "inputs": [
        {
          "internalType": "address",
          "name": "_bAd",
          "type": "address"
        },
        {
          "internalType": "string",
          "name": "_name",
          "type": "string"
        },
        {
          "internalType": "string",
          "name": "_symbol",
          "type": "string"
        },
        {
          "internalType": "uint8",
          "name": "_decimal",
          "type": "uint8"
        }
      ],
      "payable": false,
      "stateMutability": "nonpayable",
      "type": "constructor"
    },
    {
      "anonymous": false,
      "inputs": [
        {
          "indexed": true,
          "internalType": "address",
          "name": "owner",
          "type": "address"
        },
        {
          "indexed": true,
          "internalType": "address",
          "name": "spender",
          "type": "address"
        },
        {
          "indexed": false,
          "internalType": "uint256",
          "name": "value",
          "type": "uint256"
        }
      ],
      "name": "Approval",
      "type": "event"
    },
    {
      "anonymous": false,
      "inputs": [
        {
          "indexed": true,
          "internalType": "address",
          "name": "account",
          "type": "address"
        }
      ],
      "name": "MinterAdded",
      "type": "event"
    },
    {
      "anonymous": false,
      "inputs": [
        {
          "indexed": true,
          "internalType": "address",
          "name": "account",
          "type": "address"
        }
      ],
      "name": "MinterRemoved",
      "type": "event"
    },
    {
      "anonymous": false,
      "inputs": [
        {
          "indexed": true,
          "internalType": "address",
          "name": "from",
          "type": "address"
        },
        {
          "indexed": true,
          "internalType": "address",
          "name": "to",
          "type": "address"
        },
        {
          "indexed": false,
          "internalType": "uint256",
          "name": "value",
          "type": "uint256"
        }
      ],
      "name": "Transfer",
      "type": "event"
    },
    {
      "constant": false,
      "inputs": [
        {
          "internalType": "address",
          "name": "account",
          "type": "address"
        }
      ],
      "name": "addMinter",
      "outputs": [],
      "payable": false,
      "stateMutability": "nonpayable",
      "type": "function"
    },
    {
      "constant": true,
      "inputs": [
        {
          "internalType": "address",
          "name": "owner",
          "type": "address"
        },
        {
          "internalType": "address",
          "name": "spender",
          "type": "address"
        }
      ],
      "name": "allowance",
      "outputs": [
        {
          "internalType": "uint256",
          "name": "",
          "type": "uint256"
        }
      ],
      "payable": false,
      "stateMutability": "view",
      "type": "function"
    },
    {
      "constant": false,
      "inputs": [
        {
          "internalType": "address",
          "name": "spender",
          "type": "address"
        },
        {
          "internalType": "uint256",
          "name": "value",
          "type": "uint256"
        }
      ],
      "name": "approve",
      "outputs": [
        {
          "internalType": "bool",
          "name": "",
          "type": "bool"
        }
      ],
      "payable": false,
      "stateMutability": "nonpayable",
      "type": "function"
    },
    {
      "constant": true,
      "inputs": [
        {
          "internalType": "address",
          "name": "owner",
          "type": "address"
        }
      ],
      "name": "balanceOf",
      "outputs": [
        {
          "internalType": "uint256",
          "name": "",
          "type": "uint256"
        }
      ],
      "payable": false,
      "stateMutability": "view",
      "type": "function"
    },
    {
      "constant": false,
      "inputs": [
        {
          "internalType": "address",
          "name": "account",
          "type": "address"
        },
        {
          "internalType": "uint256",
          "name": "value",
          "type": "uint256"
        }
      ],
      "name": "burnFrom",
      "outputs": [],
      "payable": false,
      "stateMutability": "nonpayable",
      "type": "function"
    },
    {
      "constant": false,
      "inputs": [
        {
          "internalType": "address",
          "name": "spender",
          "type": "address"
        },
        {
          "internalType": "uint256",
          "name": "subtractedValue",
          "type": "uint256"
        }
      ],
      "name": "decreaseAllowance",
      "outputs": [
        {
          "internalType": "bool",
          "name": "",
          "type": "bool"
        }
      ],
      "payable": false,
      "stateMutability": "nonpayable",
      "type": "function"
    },
    {
      "constant": false,
      "inputs": [
        {
          "internalType": "address",
          "name": "spender",
          "type": "address"
        },
        {
          "internalType": "uint256",
          "name": "addedValue",
          "type": "uint256"
        }
      ],
      "name": "increaseAllowance",
      "outputs": [
        {
          "internalType": "bool",
          "name": "",
          "type": "bool"
        }
      ],
      "payable": false,
      "stateMutability": "nonpayable",
      "type": "function"
    },
    {
      "constant": true,
      "inputs": [
        {
          "internalType": "address",
          "name": "account",
          "type": "address"
        }
      ],
      "name": "isMinter",
      "outputs": [
        {
          "internalType": "bool",
          "name": "",
          "type": "bool"
        }
      ],
      "payable": false,
      "stateMutability": "view",
      "type": "function"
    },
    {
      "constant": false,
      "inputs": [
        {
          "internalType": "address",
          "name": "to",
          "type": "address"
        },
        {
          "internalType": "uint256",
          "name": "value",
          "type": "uint256"
        }
      ],
      "name": "mint",
      "outputs": [
        {
          "internalType": "bool",
          "name": "",
          "type": "bool"
        }
      ],
      "payable": false,
      "stateMutability": "nonpayable",
      "type": "function"
    },
    {
      "constant": false,
      "inputs": [],
      "name": "renounceMinter",
      "outputs": [],
      "payable": false,
      "stateMutability": "nonpayable",
      "type": "function"
    },
    {
      "constant": true,
      "inputs": [],
      "name": "totalSupply",
      "outputs": [
        {
          "internalType": "uint256",
          "name": "",
          "type": "uint256"
        }
      ],
      "payable": false,
      "stateMutability": "view",
      "type": "function"
    },
    {
      "constant": false,
      "inputs": [
        {
          "internalType": "address",
          "name": "to",
          "type": "address"
        },
        {
          "internalType": "uint256",
          "name": "value",
          "type": "uint256"
        }
      ],
      "name": "transfer",
      "outputs": [
        {
          "internalType": "bool",
          "name": "",
          "type": "bool"
        }
      ],
      "payable": false,
      "stateMutability": "nonpayable",
      "type": "function"
    },
    {
      "constant": false,
      "inputs": [
        {
          "internalType": "address",
          "name": "from",
          "type": "address"
        },
        {
          "internalType": "address",
          "name": "to",
          "type": "address"
        },
        {
          "internalType": "uint256",
          "name": "value",
          "type": "uint256"
        }
      ],
      "name": "transferFrom",
      "outputs": [
        {
          "internalType": "bool",
          "name": "",
          "type": "bool"
        }
      ],
      "payable": false,
      "stateMutability": "nonpayable",
      "type": "function"
    }
  ],
  "bytecode": "0x60806040523480156200001157600080fd5b5060405162000ce938038062000ce9833981810160405260808110156200003757600080fd5b8151602083018051604051929492938301929190846401000000008211156200005f57600080fd5b9083019060208201858111156200007557600080fd5b82516401000000008111828201881017156200009057600080fd5b82525081516020918201929091019080838360005b83811015620000bf578181015183820152602001620000a5565b50505050905090810190601f168015620000ed5780820380516001836020036101000a031916815260200191505b50604052602001805160405193929190846401000000008211156200011157600080fd5b9083019060208201858111156200012757600080fd5b82516401000000008111828201881017156200014257600080fd5b82525081516020918201929091019080838360005b838110156200017157818101518382015260200162000157565b50505050905090810190601f1680156200019f5780820380516001836020036101000a031916815260200191505b50604052602001519150620001bf9050336001600160e01b036200022416565b600480546001600160a01b0319166001600160a01b0386161790558251620001ef90600590602086019062000305565b5081516200020590600690602085019062000305565b506007805460ff191660ff9290921691909117905550620003aa915050565b6200023f8160036200027660201b620008661790919060201c565b6040516001600160a01b038216907f6ae172837ea30b801fbfcdd4108aa1d5bf8ff775444fd70256b44e6bf3dfc3f690600090a250565b6001600160a01b0381166200028a57600080fd5b6200029f82826001600160e01b03620002cf16565b15620002aa57600080fd5b6001600160a01b0316600090815260209190915260409020805460ff19166001179055565b60006001600160a01b038216620002e557600080fd5b506001600160a01b03166000908152602091909152604090205460ff1690565b828054600181600116156101000203166002900490600052602060002090601f016020900481019282601f106200034857805160ff191683800117855562000378565b8280016001018555821562000378579182015b82811115620003785782518255916020019190600101906200035b565b50620003869291506200038a565b5090565b620003a791905b8082111562000386576000815560010162000391565b90565b61092f80620003ba6000396000f3fe608060405234801561001057600080fd5b50600436106100cf5760003560e01c806379cc67901161008c578063a457c2d711610066578063a457c2d71461023e578063a9059cbb1461026a578063aa271e1a14610296578063dd62ed3e146102bc576100cf565b806379cc6790146101e2578063983b2d56146102105780639865027514610236576100cf565b8063095ea7b3146100d457806318160ddd1461011457806323b872dd1461012e578063395093511461016457806340c10f191461019057806370a08231146101bc575b600080fd5b610100600480360360408110156100ea57600080fd5b506001600160a01b0381351690602001356102ea565b604080519115158252519081900360200190f35b61011c610300565b60408051918252519081900360200190f35b6101006004803603606081101561014457600080fd5b506001600160a01b03813581169160208101359091169060400135610306565b6101006004803603604081101561017a57600080fd5b506001600160a01b03813516906020013561035d565b610100600480360360408110156101a657600080fd5b506001600160a01b038135169060200135610399565b61011c600480360360208110156101d257600080fd5b50356001600160a01b03166103b7565b61020e600480360360408110156101f857600080fd5b506001600160a01b0381351690602001356103d2565b005b61020e6004803603602081101561022657600080fd5b50356001600160a01b031661041b565b61020e610439565b6101006004803603604081101561025457600080fd5b506001600160a01b038135169060200135610444565b6101006004803603604081101561028057600080fd5b506001600160a01b038135169060200135610480565b610100600480360360208110156102ac57600080fd5b50356001600160a01b031661048d565b61011c600480360360408110156102d257600080fd5b506001600160a01b03813581169160200135166104a6565b60006102f73384846104d1565b50600192915050565b60025490565b6000610313848484610559565b6001600160a01b03841660009081526001602090815260408083203380855292529091205461035391869161034e908663ffffffff61062416565b6104d1565b5060019392505050565b3360008181526001602090815260408083206001600160a01b038716845290915281205490916102f791859061034e908663ffffffff61063916565b60006103a43361048d565b6103ad57600080fd5b6102f78383610652565b6001600160a01b031660009081526020819052604090205490565b6103dc82826106fa565b6001600160a01b03821660009081526001602090815260408083203380855292529091205461041791849161034e908563ffffffff61062416565b5050565b6104243361048d565b61042d57600080fd5b610436816107a1565b50565b610442336107e9565b565b3360008181526001602090815260408083206001600160a01b038716845290915281205490916102f791859061034e908663ffffffff61062416565b60006102f7338484610559565b60006104a060038363ffffffff61083116565b92915050565b6001600160a01b03918216600090815260016020908152604080832093909416825291909152205490565b6001600160a01b0382166104e457600080fd5b6001600160a01b0383166104f757600080fd5b6001600160a01b03808416600081815260016020908152604080832094871680845294825291829020859055815185815291517f8c5be1e5ebec7d5bd14f71427d1e84f3dd0314c0f7b2291e5b200ac8c7c3b9259281900390910190a3505050565b6001600160a01b03821661056c57600080fd5b6001600160a01b038316600090815260208190526040902054610595908263ffffffff61062416565b6001600160a01b0380851660009081526020819052604080822093909355908416815220546105ca908263ffffffff61063916565b6001600160a01b038084166000818152602081815260409182902094909455805185815290519193928716927fddf252ad1be2c89b69c2b068fc378daa952ba7f163c4a11628f55a4df523b3ef92918290030190a3505050565b60008282111561063357600080fd5b50900390565b60008282018381101561064b57600080fd5b9392505050565b6001600160a01b03821661066557600080fd5b600254610678908263ffffffff61063916565b6002556001600160a01b0382166000908152602081905260409020546106a4908263ffffffff61063916565b6001600160a01b0383166000818152602081815260408083209490945583518581529351929391927fddf252ad1be2c89b69c2b068fc378daa952ba7f163c4a11628f55a4df523b3ef9281900390910190a35050565b6001600160a01b03821661070d57600080fd5b600254610720908263ffffffff61062416565b6002556001600160a01b03821660009081526020819052604090205461074c908263ffffffff61062416565b6001600160a01b038316600081815260208181526040808320949094558351858152935191937fddf252ad1be2c89b69c2b068fc378daa952ba7f163c4a11628f55a4df523b3ef929081900390910190a35050565b6107b260038263ffffffff61086616565b6040516001600160a01b038216907f6ae172837ea30b801fbfcdd4108aa1d5bf8ff775444fd70256b44e6bf3dfc3f690600090a250565b6107fa60038263ffffffff6108b216565b6040516001600160a01b038216907fe94479a9f7e1952cc78f2d6baab678adc1b772d936c6583def489e524cb6669290600090a250565b60006001600160a01b03821661084657600080fd5b506001600160a01b03166000908152602091909152604090205460ff1690565b6001600160a01b03811661087957600080fd5b6108838282610831565b1561088d57600080fd5b6001600160a01b0316600090815260209190915260409020805460ff19166001179055565b6001600160a01b0381166108c557600080fd5b6108cf8282610831565b6108d857600080fd5b6001600160a01b0316600090815260209190915260409020805460ff1916905556fea265627a7a7231582051bed2c41db308e633d05d5b33add74fa268422c289d39f07417c2b557bd262064736f6c63430005100032",
  "source": "pragma solidity >=0.4.21 <0.9.0;\r\n\r\nimport \"./token/ERC20/ERC20Mintable.sol\";\r\n\r\n\r\n//\t@Title Loyalty Points\r\n\r\n\t///@dev Implementation of the Loyalty Tokens. The loyalty points are ERC20 Mintable tokens\r\n\r\ncontract loyalty_points is ERC20Mintable {\r\n\r\n\t///Name of the loyalty_program of business\r\n\taddress private owner;\r\n\tstring private name;\r\n\tstring private symbol;\r\n\tuint8 private decimal;\r\n\r\n\t//the creator of the contarct is the owner\r\n\tconstructor(address _bAd, string memory _name, string memory _symbol, uint8 _decimal) public {\r\n\t\towner = _bAd;\r\n\t\tname = _name;\r\n\t\tsymbol = _symbol;\r\n\t\tdecimal = _decimal;\r\n\t}\r\n}",
  "sourcePath": "C:\\Users\\pothu\\OneDrive\\Desktop\\loyalty_points\\contracts\\loyalty_points.sol",
  "compiler": {
    "name": "solc",
    "version": "0.5.16+commit.9c3226ce.Emscripten.clang"
  },
  "schemaVersion": "3.4.15",
  "updatedAt": "2023-08-20T01:13:30.322Z",
  "devdoc": {
    "details": "Implementation of the Loyalty Tokens. The loyalty points are ERC20 Mintable tokens",
    "methods": {
      "allowance(address,address)": {
        "details": "Function to check the amount of tokens that an owner allowed to a spender.",
        "params": {
          "owner": "address The address which owns the funds.",
          "spender": "address The address which will spend the funds."
        },
        "return": "A uint256 specifying the amount of tokens still available for the spender."
      },
      "approve(address,uint256)": {
        "details": "Approve the passed address to spend the specified amount of tokens on behalf of msg.sender. Beware that changing an allowance with this method brings the risk that someone may use both the old and the new allowance by unfortunate transaction ordering. One possible solution to mitigate this race condition is to first reduce the spender's allowance to 0 and set the desired value afterwards: https://github.com/ethereum/EIPs/issues/20#issuecomment-263524729",
        "params": {
          "spender": "The address which will spend the funds.",
          "value": "The amount of tokens to be spent."
        }
      },
      "balanceOf(address)": {
        "details": "Gets the balance of the specified address.",
        "params": {
          "owner": "The address to query the balance of."
        },
        "return": "A uint256 representing the amount owned by the passed address."
      },
      "burnFrom(address,uint256)": {
        "details": "Internal function that burns an amount of the token of a given account, deducting from the sender's allowance for said account. Uses the internal burn function. Emits an Approval event (reflecting the reduced allowance).",
        "params": {
          "account": "The account whose tokens will be burnt.",
          "value": "The amount that will be burnt."
        }
      },
      "decreaseAllowance(address,uint256)": {
        "details": "Decrease the amount of tokens that an owner allowed to a spender. approve should be called when _allowed[msg.sender][spender] == 0. To decrement allowed value is better to use this function to avoid 2 calls (and wait until the first transaction is mined) From MonolithDAO Token.sol Emits an Approval event.",
        "params": {
          "spender": "The address which will spend the funds.",
          "subtractedValue": "The amount of tokens to decrease the allowance by."
        }
      },
      "increaseAllowance(address,uint256)": {
        "details": "Increase the amount of tokens that an owner allowed to a spender. approve should be called when _allowed[msg.sender][spender] == 0. To increment allowed value is better to use this function to avoid 2 calls (and wait until the first transaction is mined) From MonolithDAO Token.sol Emits an Approval event.",
        "params": {
          "addedValue": "The amount of tokens to increase the allowance by.",
          "spender": "The address which will spend the funds."
        }
      },
      "mint(address,uint256)": {
        "details": "Function to mint tokens",
        "params": {
          "to": "The address that will receive the minted tokens.",
          "value": "The amount of tokens to mint."
        },
        "return": "A boolean that indicates if the operation was successful."
      },
      "totalSupply()": {
        "details": "Total number of tokens in existence"
      },
      "transfer(address,uint256)": {
        "details": "Transfer token to a specified address",
        "params": {
          "to": "The address to transfer to.",
          "value": "The amount to be transferred."
        }
      },
      "transferFrom(address,address,uint256)": {
        "details": "Transfer tokens from one address to another. Note that while this function emits an Approval event, this is not required as per the specification, and other compliant implementations may not emit the event.",
        "params": {
          "from": "address The address which you want to send tokens from",
          "to": "address The address which you want to transfer to",
          "value": "uint256 the amount of tokens to be transferred"
        }
      }
    }
  },
  "userdoc": {
    "methods": {}
  }
}