{
  "contractName": "loyalty_overview",
  "abi": [
    {
      "inputs": [],
      "payable": false,
      "stateMutability": "nonpayable",
      "type": "constructor"
    },
    {
      "constant": true,
      "inputs": [
        {
          "internalType": "address",
          "name": "",
          "type": "address"
        }
      ],
      "name": "businesses",
      "outputs": [
        {
          "internalType": "address",
          "name": "busAd",
          "type": "address"
        },
        {
          "internalType": "string",
          "name": "name",
          "type": "string"
        },
        {
          "internalType": "string",
          "name": "email",
          "type": "string"
        },
        {
          "internalType": "bool",
          "name": "isReg",
          "type": "bool"
        },
        {
          "internalType": "contract loyalty_points",
          "name": "lt",
          "type": "address"
        }
      ],
      "payable": false,
      "stateMutability": "view",
      "type": "function"
    },
    {
      "constant": true,
      "inputs": [
        {
          "internalType": "address",
          "name": "",
          "type": "address"
        }
      ],
      "name": "customers",
      "outputs": [
        {
          "internalType": "address",
          "name": "cusAd",
          "type": "address"
        },
        {
          "internalType": "string",
          "name": "firstName",
          "type": "string"
        },
        {
          "internalType": "string",
          "name": "lastName",
          "type": "string"
        },
        {
          "internalType": "string",
          "name": "email",
          "type": "string"
        },
        {
          "internalType": "bool",
          "name": "isReg",
          "type": "bool"
        }
      ],
      "payable": false,
      "stateMutability": "view",
      "type": "function"
    },
    {
      "constant": false,
      "inputs": [
        {
          "internalType": "string",
          "name": "_bName",
          "type": "string"
        },
        {
          "internalType": "string",
          "name": "_email",
          "type": "string"
        },
        {
          "internalType": "address",
          "name": "_bAd",
          "type": "address"
        },
        {
          "internalType": "string",
          "name": "_symbol",
          "type": "string"
        },
        {
          "internalType": "uint8",
          "name": "_decimal",
          "type": "uint8"
        }
      ],
      "name": "regBusiness",
      "outputs": [],
      "payable": false,
      "stateMutability": "nonpayable",
      "type": "function"
    },
    {
      "constant": false,
      "inputs": [
        {
          "internalType": "string",
          "name": "_firstName",
          "type": "string"
        },
        {
          "internalType": "string",
          "name": "_lastName",
          "type": "string"
        },
        {
          "internalType": "string",
          "name": "_email",
          "type": "string"
        },
        {
          "internalType": "address",
          "name": "_cAd",
          "type": "address"
        }
      ],
      "name": "regCustomer",
      "outputs": [],
      "payable": false,
      "stateMutability": "nonpayable",
      "type": "function"
    },
    {
      "constant": false,
      "inputs": [
        {
          "internalType": "address",
          "name": "_bAd",
          "type": "address"
        }
      ],
      "name": "joinBusiness",
      "outputs": [],
      "payable": false,
      "stateMutability": "nonpayable",
      "type": "function"
    },
    {
      "constant": false,
      "inputs": [
        {
          "internalType": "address",
          "name": "_bAd",
          "type": "address"
        },
        {
          "internalType": "uint256",
          "name": "_rate",
          "type": "uint256"
        }
      ],
      "name": "connectBusiness",
      "outputs": [],
      "payable": false,
      "stateMutability": "nonpayable",
      "type": "function"
    },
    {
      "constant": false,
      "inputs": [
        {
          "internalType": "address",
          "name": "from_bus",
          "type": "address"
        },
        {
          "internalType": "address",
          "name": "to_bus",
          "type": "address"
        },
        {
          "internalType": "uint256",
          "name": "_points",
          "type": "uint256"
        }
      ],
      "name": "spend",
      "outputs": [],
      "payable": false,
      "stateMutability": "nonpayable",
      "type": "function"
    },
    {
      "constant": false,
      "inputs": [
        {
          "internalType": "address",
          "name": "_cAd",
          "type": "address"
        },
        {
          "internalType": "uint256",
          "name": "_points",
          "type": "uint256"
        }
      ],
      "name": "reward",
      "outputs": [],
      "payable": false,
      "stateMutability": "nonpayable",
      "type": "function"
    }
  ],
  "bytecode": "0x608060405234801561001057600080fd5b50600080546001600160a01b031916331790556126a0806100326000396000f3fe60806040523480156200001157600080fd5b5060043610620000945760003560e01c8063791c27ef1162000063578063791c27ef14620005f9578063b1e10c7b1462000632578063b31e26e41462000661578063eaa0a1df14620007935762000094565b80631a716ba8146200009957806321670f22146200026057806322de633c146200028f578063336989ae146200045f575b600080fd5b6200025e60048036036080811015620000b157600080fd5b810190602081018135600160201b811115620000cc57600080fd5b820183602082011115620000df57600080fd5b803590602001918460018302840111600160201b831117156200010157600080fd5b91908080601f0160208091040260200160405190810160405280939291908181526020018383808284376000920191909152509295949360208101935035915050600160201b8111156200015457600080fd5b8201836020820111156200016757600080fd5b803590602001918460018302840111600160201b831117156200018957600080fd5b91908080601f0160208091040260200160405190810160405280939291908181526020018383808284376000920191909152509295949360208101935035915050600160201b811115620001dc57600080fd5b820183602082011115620001ef57600080fd5b803590602001918460018302840111600160201b831117156200021157600080fd5b91908080601f016020809104026020016040519081016040528093929190818152602001838380828437600092019190915250929550505090356001600160a01b03169150620007bc9050565b005b6200025e600480360360408110156200027857600080fd5b506001600160a01b03813516906020013562000975565b6200025e600480360360a0811015620002a757600080fd5b810190602081018135600160201b811115620002c257600080fd5b820183602082011115620002d557600080fd5b803590602001918460018302840111600160201b83111715620002f757600080fd5b91908080601f0160208091040260200160405190810160405280939291908181526020018383808284376000920191909152509295949360208101935035915050600160201b8111156200034a57600080fd5b8201836020820111156200035d57600080fd5b803590602001918460018302840111600160201b831117156200037f57600080fd5b91908080601f01602080910402602001604051908101604052809392919081815260200183838082843760009201919091525092956001600160a01b03853516959094909350604081019250602001359050600160201b811115620003e357600080fd5b820183602082011115620003f657600080fd5b803590602001918460018302840111600160201b831117156200041857600080fd5b91908080601f0160208091040260200160405190810160405280939291908181526020018383808284376000920191909152509295505050903560ff16915062000b969050565b62000488600480360360208110156200047757600080fd5b50356001600160a01b031662000f15565b60405180866001600160a01b03166001600160a01b0316815260200180602001806020018060200185151515158152602001848103845288818151815260200191508051906020019080838360005b83811015620004f1578181015183820152602001620004d7565b50505050905090810190601f1680156200051f5780820380516001836020036101000a031916815260200191505b50848103835287518152875160209182019189019080838360005b83811015620005545781810151838201526020016200053a565b50505050905090810190601f168015620005825780820380516001836020036101000a031916815260200191505b50848103825286518152865160209182019188019080838360005b83811015620005b75781810151838201526020016200059d565b50505050905090810190601f168015620005e55780820380516001836020036101000a031916815260200191505b509850505050505050505060405180910390f35b6200025e600480360360608110156200061157600080fd5b506001600160a01b03813581169160208101359091169060400135620010ff565b6200025e600480360360408110156200064a57600080fd5b506001600160a01b038135169060200135620014db565b6200068a600480360360208110156200067957600080fd5b50356001600160a01b0316620015cc565b604080516001600160a01b03808816825284151560608301528316608082015260a060208083018281528851928401929092528751929391929184019160c085019189019080838360005b83811015620006ef578181015183820152602001620006d5565b50505050905090810190601f1680156200071d5780820380516001836020036101000a031916815260200191505b50838103825286518152865160209182019188019080838360005b838110156200075257818101518382015260200162000738565b50505050905090810190601f168015620007805780820380516001836020036101000a031916815260200191505b5097505050505050505060405180910390f35b6200025e60048036036020811015620007ab57600080fd5b50356001600160a01b031662001731565b6000546001600160a01b03163314620007d457600080fd5b6001600160a01b03811660009081526001602052604090206004015460ff16156200083c576040805162461bcd60e51b815260206004820152601360248201527210dd5cdd1bdb595c88149959da5cdd195c9959606a1b604482015290519081900360640190fd5b6001600160a01b03811660009081526002602052604090206003015460ff1615620008a4576040805162461bcd60e51b8152602060048201526013602482015272109d5cda5b995cdcc8149959da5cdd195c9959606a1b604482015290519081900360640190fd5b6040805160a0810182526001600160a01b03838116808352602080840189815284860189905260608501889052600160808601819052600093845280835295909220845181546001600160a01b031916941693909317835590518051939492936200091793850192919091019062001832565b50604082015180516200093591600284019160209091019062001832565b50606082015180516200095391600384019160209091019062001832565b50608091909101516004909101805460ff191691151591909117905550505050565b3360009081526002602052604090206003015460ff16620009c85760405162461bcd60e51b8152600401808060200182810382526024815260200180620025cf6024913960400191505060405180910390fd5b6001600160a01b03821660009081526001602052604090206004015460ff1662000a245760405162461bcd60e51b8152600401808060200182810382526024815260200180620026486024913960400191505060405180910390fd5b3360009081526002602090815260408083206001600160a01b038616845260040190915290205460ff1662000a8b5760405162461bcd60e51b815260040180806020018281038252602a815260200180620025f3602a913960400191505060405180910390fd5b6001600160a01b038216600090815260016020908152604080832033845260050190915290205460ff1662000af25760405162461bcd60e51b815260040180806020018281038252602a815260200180620025f3602a913960400191505060405180910390fd5b3360008181526002602090815260408083206003015481516323b872dd60e01b815260048101959095526001600160a01b038781166024870152604486018790529151610100909104909116936323b872dd9360648083019493928390030190829087803b15801562000b6457600080fd5b505af115801562000b79573d6000803e3d6000fd5b505050506040513d602081101562000b9057600080fd5b50505050565b6000546001600160a01b0316331462000bae57600080fd5b6001600160a01b03831660009081526001602052604090206004015460ff161562000c16576040805162461bcd60e51b815260206004820152601360248201527210dd5cdd1bdb595c88149959da5cdd195c9959606a1b604482015290519081900360640190fd5b6001600160a01b03831660009081526002602052604090206003015460ff161562000c7e576040805162461bcd60e51b8152602060048201526013602482015272109d5cda5b995cdcc8149959da5cdd195c9959606a1b604482015290519081900360640190fd5b60008386848460405162000c9290620018b7565b6001600160a01b038516815260ff82166060820152608060208083018281528651928401929092528551604084019160a08501919088019080838360005b8381101562000cea57818101518382015260200162000cd0565b50505050905090810190601f16801562000d185780820380516001836020036101000a031916815260200191505b50838103825285518152855160209182019187019080838360005b8381101562000d4d57818101518382015260200162000d33565b50505050905090810190601f16801562000d7b5780820380516001836020036101000a031916815260200191505b509650505050505050604051809103906000f08015801562000da1573d6000803e3d6000fd5b506040805160a0810182526001600160a01b0387811680835260208084018c81528486018c9052600160608601819052878516608087015260009384526002835295909220845181546001600160a01b0319169416939093178355905180519596509294919362000e19939085019291019062001832565b506040820151805162000e3791600284019160209091019062001832565b5060608201516003918201805460809094015160ff1990941691151591909117610100600160a81b0319166101006001600160a01b0394851681029190911790915586831660008181526002602090815260408083209095015485516340c10f1960e01b815260048101949094526127106024850152945193909404909416936340c10f199360448084019491939192918390030190829087803b15801562000edf57600080fd5b505af115801562000ef4573d6000803e3d6000fd5b505050506040513d602081101562000f0b57600080fd5b5050505050505050565b600160208181526000928352604092839020805481840180548651600261010097831615979097026000190190911695909504601f81018590048502860185019096528585526001600160a01b039091169491939290919083018282801562000fc25780601f1062000f965761010080835404028352916020019162000fc2565b820191906000526020600020905b81548152906001019060200180831162000fa457829003601f168201915b50505060028085018054604080516020601f6000196101006001871615020190941695909504928301859004850281018501909152818152959695945090925090830182828015620010585780601f106200102c5761010080835404028352916020019162001058565b820191906000526020600020905b8154815290600101906020018083116200103a57829003601f168201915b5050505060038301805460408051602060026001851615610100026000190190941693909304601f8101849004840282018401909252818152949594935090830182828015620010ec5780601f10620010c057610100808354040283529160200191620010ec565b820191906000526020600020905b815481529060010190602001808311620010ce57829003601f168201915b5050506004909301549192505060ff1685565b3360009081526001602052604090206004015460ff16620011525760405162461bcd60e51b8152600401808060200182810382526024815260200180620026486024913960400191505060405180910390fd5b6001600160a01b03831660009081526002602052604090206003015460ff16620011ae5760405162461bcd60e51b8152600401808060200182810382526024815260200180620025cf6024913960400191505060405180910390fd5b6001600160a01b03821660009081526002602052604090206003015460ff166200120a5760405162461bcd60e51b8152600401808060200182810382526024815260200180620025cf6024913960400191505060405180910390fd5b816001600160a01b0316836001600160a01b03161415620012cb576001600160a01b0380831660008181526002602090815260408083206003015481516323b872dd60e01b81523360048201526024810195909552604485018790529051610100909104909416936323b872dd93606480820194918390030190829087803b1580156200129657600080fd5b505af1158015620012ab573d6000803e3d6000fd5b505050506040513d6020811015620012c257600080fd5b50620014d69050565b6001600160a01b038084166000908152600260209081526040808320938616835260059093019052205460ff16620013355760405162461bcd60e51b815260040180806020018281038252602b8152602001806200261d602b913960400191505060405180910390fd5b6001600160a01b038083166000908152600260209081526040808320938716835260059093019052205460ff166200139f5760405162461bcd60e51b815260040180806020018281038252602b8152602001806200261d602b913960400191505060405180910390fd5b6001600160a01b03808416600081815260026020818152604080842088871685526006810183528185205495855292909152600390910154815163079cc67960e41b8152336004820152602481018790529151939461010090910416926379cc67909260448084019391929182900301818387803b1580156200142157600080fd5b505af115801562001436573d6000803e3d6000fd5b505050506001600160a01b0383811660008181526002602090815260408083206003015481516340c10f1960e01b8152600481019590955287870260248601529051610100909104909416936340c10f1993604480820194918390030190829087803b158015620014a657600080fd5b505af1158015620014bb573d6000803e3d6000fd5b505050506040513d6020811015620014d257600080fd5b5050505b505050565b6001600160a01b03821660009081526002602052604090206003015460ff16620015375760405162461bcd60e51b8152600401808060200182810382526024815260200180620025cf6024913960400191505060405180910390fd5b3360009081526002602052604090206003015460ff166200158a5760405162461bcd60e51b8152600401808060200182810382526024815260200180620025cf6024913960400191505060405180910390fd5b3360009081526002602090815260408083206001600160a01b03959095168352600585018252808320805460ff19166001179055600690940190529190912055565b6002602081815260009283526040928390208054600180830180548751601f600019948316156101000294909401909116969096049182018590048502860185019096528085526001600160a01b0390911694919392830182828015620016775780601f106200164b5761010080835404028352916020019162001677565b820191906000526020600020905b8154815290600101906020018083116200165957829003601f168201915b50505060028085018054604080516020601f60001961010060018716150201909416959095049283018590048502810185019091528181529596959450909250908301828280156200170d5780601f10620016e1576101008083540402835291602001916200170d565b820191906000526020600020905b815481529060010190602001808311620016ef57829003601f168201915b5050506003909301549192505060ff8116906001600160a01b036101009091041685565b3360009081526001602052604090206004015460ff16620017845760405162461bcd60e51b8152600401808060200182810382526024815260200180620026486024913960400191505060405180910390fd5b6001600160a01b03811660009081526002602052604090206003015460ff16620017e05760405162461bcd60e51b8152600401808060200182810382526024815260200180620025cf6024913960400191505060405180910390fd5b6001600160a01b0316600081815260026020908152604080832033845260040182528083208054600160ff19918216811790925581845282852095855260059095019092529091208054909216179055565b828054600181600116156101000203166002900490600052602060002090601f016020900481019282601f106200187557805160ff1916838001178555620018a5565b82800160010185558215620018a5579182015b82811115620018a557825182559160200191906001019062001888565b50620018b3929150620018c5565b5090565b610ce980620018e683390190565b620018e291905b80821115620018b35760008155600101620018cc565b9056fe60806040523480156200001157600080fd5b5060405162000ce938038062000ce9833981810160405260808110156200003757600080fd5b8151602083018051604051929492938301929190846401000000008211156200005f57600080fd5b9083019060208201858111156200007557600080fd5b82516401000000008111828201881017156200009057600080fd5b82525081516020918201929091019080838360005b83811015620000bf578181015183820152602001620000a5565b50505050905090810190601f168015620000ed5780820380516001836020036101000a031916815260200191505b50604052602001805160405193929190846401000000008211156200011157600080fd5b9083019060208201858111156200012757600080fd5b82516401000000008111828201881017156200014257600080fd5b82525081516020918201929091019080838360005b838110156200017157818101518382015260200162000157565b50505050905090810190601f1680156200019f5780820380516001836020036101000a031916815260200191505b50604052602001519150620001bf9050336001600160e01b036200022416565b600480546001600160a01b0319166001600160a01b0386161790558251620001ef90600590602086019062000305565b5081516200020590600690602085019062000305565b506007805460ff191660ff9290921691909117905550620003aa915050565b6200023f8160036200027660201b620008661790919060201c565b6040516001600160a01b038216907f6ae172837ea30b801fbfcdd4108aa1d5bf8ff775444fd70256b44e6bf3dfc3f690600090a250565b6001600160a01b0381166200028a57600080fd5b6200029f82826001600160e01b03620002cf16565b15620002aa57600080fd5b6001600160a01b0316600090815260209190915260409020805460ff19166001179055565b60006001600160a01b038216620002e557600080fd5b506001600160a01b03166000908152602091909152604090205460ff1690565b828054600181600116156101000203166002900490600052602060002090601f016020900481019282601f106200034857805160ff191683800117855562000378565b8280016001018555821562000378579182015b82811115620003785782518255916020019190600101906200035b565b50620003869291506200038a565b5090565b620003a791905b8082111562000386576000815560010162000391565b90565b61092f80620003ba6000396000f3fe608060405234801561001057600080fd5b50600436106100cf5760003560e01c806379cc67901161008c578063a457c2d711610066578063a457c2d71461023e578063a9059cbb1461026a578063aa271e1a14610296578063dd62ed3e146102bc576100cf565b806379cc6790146101e2578063983b2d56146102105780639865027514610236576100cf565b8063095ea7b3146100d457806318160ddd1461011457806323b872dd1461012e578063395093511461016457806340c10f191461019057806370a08231146101bc575b600080fd5b610100600480360360408110156100ea57600080fd5b506001600160a01b0381351690602001356102ea565b604080519115158252519081900360200190f35b61011c610300565b60408051918252519081900360200190f35b6101006004803603606081101561014457600080fd5b506001600160a01b03813581169160208101359091169060400135610306565b6101006004803603604081101561017a57600080fd5b506001600160a01b03813516906020013561035d565b610100600480360360408110156101a657600080fd5b506001600160a01b038135169060200135610399565b61011c600480360360208110156101d257600080fd5b50356001600160a01b03166103b7565b61020e600480360360408110156101f857600080fd5b506001600160a01b0381351690602001356103d2565b005b61020e6004803603602081101561022657600080fd5b50356001600160a01b031661041b565b61020e610439565b6101006004803603604081101561025457600080fd5b506001600160a01b038135169060200135610444565b6101006004803603604081101561028057600080fd5b506001600160a01b038135169060200135610480565b610100600480360360208110156102ac57600080fd5b50356001600160a01b031661048d565b61011c600480360360408110156102d257600080fd5b506001600160a01b03813581169160200135166104a6565b60006102f73384846104d1565b50600192915050565b60025490565b6000610313848484610559565b6001600160a01b03841660009081526001602090815260408083203380855292529091205461035391869161034e908663ffffffff61062416565b6104d1565b5060019392505050565b3360008181526001602090815260408083206001600160a01b038716845290915281205490916102f791859061034e908663ffffffff61063916565b60006103a43361048d565b6103ad57600080fd5b6102f78383610652565b6001600160a01b031660009081526020819052604090205490565b6103dc82826106fa565b6001600160a01b03821660009081526001602090815260408083203380855292529091205461041791849161034e908563ffffffff61062416565b5050565b6104243361048d565b61042d57600080fd5b610436816107a1565b50565b610442336107e9565b565b3360008181526001602090815260408083206001600160a01b038716845290915281205490916102f791859061034e908663ffffffff61062416565b60006102f7338484610559565b60006104a060038363ffffffff61083116565b92915050565b6001600160a01b03918216600090815260016020908152604080832093909416825291909152205490565b6001600160a01b0382166104e457600080fd5b6001600160a01b0383166104f757600080fd5b6001600160a01b03808416600081815260016020908152604080832094871680845294825291829020859055815185815291517f8c5be1e5ebec7d5bd14f71427d1e84f3dd0314c0f7b2291e5b200ac8c7c3b9259281900390910190a3505050565b6001600160a01b03821661056c57600080fd5b6001600160a01b038316600090815260208190526040902054610595908263ffffffff61062416565b6001600160a01b0380851660009081526020819052604080822093909355908416815220546105ca908263ffffffff61063916565b6001600160a01b038084166000818152602081815260409182902094909455805185815290519193928716927fddf252ad1be2c89b69c2b068fc378daa952ba7f163c4a11628f55a4df523b3ef92918290030190a3505050565b60008282111561063357600080fd5b50900390565b60008282018381101561064b57600080fd5b9392505050565b6001600160a01b03821661066557600080fd5b600254610678908263ffffffff61063916565b6002556001600160a01b0382166000908152602081905260409020546106a4908263ffffffff61063916565b6001600160a01b0383166000818152602081815260408083209490945583518581529351929391927fddf252ad1be2c89b69c2b068fc378daa952ba7f163c4a11628f55a4df523b3ef9281900390910190a35050565b6001600160a01b03821661070d57600080fd5b600254610720908263ffffffff61062416565b6002556001600160a01b03821660009081526020819052604090205461074c908263ffffffff61062416565b6001600160a01b038316600081815260208181526040808320949094558351858152935191937fddf252ad1be2c89b69c2b068fc378daa952ba7f163c4a11628f55a4df523b3ef929081900390910190a35050565b6107b260038263ffffffff61086616565b6040516001600160a01b038216907f6ae172837ea30b801fbfcdd4108aa1d5bf8ff775444fd70256b44e6bf3dfc3f690600090a250565b6107fa60038263ffffffff6108b216565b6040516001600160a01b038216907fe94479a9f7e1952cc78f2d6baab678adc1b772d936c6583def489e524cb6669290600090a250565b60006001600160a01b03821661084657600080fd5b506001600160a01b03166000908152602091909152604090205460ff1690565b6001600160a01b03811661087957600080fd5b6108838282610831565b1561088d57600080fd5b6001600160a01b0316600090815260209190915260409020805460ff19166001179055565b6001600160a01b0381166108c557600080fd5b6108cf8282610831565b6108d857600080fd5b6001600160a01b0316600090815260209190915260409020805460ff1916905556fea265627a7a7231582051bed2c41db308e633d05d5b33add74fa268422c289d39f07417c2b557bd262064736f6c6343000510003254686973206973206e6f7420612076616c696420627573696e657373206163636f756e745468697320637573746f6d657220686173206e6f74206a6f696e656420796f757220627573696e65737354686973206973206e6f7420612076616c6964206c696e6b656420627573696e657373206163636f756e7454686973206973206e6f7420612076616c696420637573746f6d6572206163636f756e74a265627a7a72315820e2f9491985241ad4e1a9b6159675bfc29271668296512f14ca45d0757e50913b64736f6c63430005100032",
  "source": "pragma solidity >=0.4.21 <0.9.0;\r\n\r\n\r\nimport \"./loyalty_points.sol\";\r\n\r\n//\t@Title Loyalty Overview\r\n\r\n///@dev Logic for the whole loyalty program system. Each business is assigned its own crypto token. Customers can choose which business loyalty program to join. Businesses can choose to partner up with other businesses. Customers can redeem tokens earned at one businesses at another business provided they have a partnership.\r\n\r\n\r\ncontract loyalty_overview {\r\n\r\n\taddress private owner;\r\n\r\n\tconstructor() public {\r\n\t\towner = msg.sender;\r\n\t}\r\n\r\n\t//This is  complex type which will be used to identify a customer\r\n\r\n\tstruct Customer {\r\n        address cusAd;\r\n        string firstName;\r\n        string lastName;\r\n        string email;\r\n        bool isReg;\r\n        mapping(address => bool) bus; //Check if customer is part of the loyalty program of the business\r\n        //mapping(address => address) cont;\r\n\r\n\r\n\t}\r\n\r\n\t//This is  complex type which will be used to identify a business\r\n\r\n\tstruct Business {\r\n        address busAd;\r\n        string name;\r\n        string email;\r\n        bool isReg;\r\n        loyalty_points lt; //crypto token of the business\r\n        mapping(address => bool) cus;//Check if customer is part of the loyalty program of the business\r\n        mapping(address => bool) bs;//Check if business has an arrangement with other businesses\r\n        mapping(address => uint256) rate;//Rate of exchange between the two crypto-tokens\r\n\t}\r\n\r\n\t///each address is mapped to a specific customer or business\r\n\tmapping(address => Customer) public customers;\r\n\tmapping(address => Business) public businesses;\r\n\r\n\r\n\r\n    \r\n    \t/**\r\n     * @dev Registers a new business\r\n     * @param _bName  name of business\r\n     * @param _email email of business\r\n     * @param _bAd Address business\r\n     * @param _symbol of crypto token\r\n     * @param _decimal precision of token\r\n     */\r\n\r\n\tfunction regBusiness(string memory _bName, string memory _email, address _bAd, string memory _symbol, uint8 _decimal) public {\r\n\t\trequire(msg.sender == owner);\r\n\t\trequire(!customers[_bAd].isReg, \"Customer Registered\");\r\n\t\trequire(!businesses[_bAd].isReg, \"Business Registered\");\r\n\t\tloyalty_points _newcon = new loyalty_points(_bAd, _bName, _symbol, _decimal); //creates new crypto-token\r\n\t\tbusinesses[_bAd] = Business(_bAd, _bName , _email, true, _newcon);//creates new business\r\n\t\tbusinesses[_bAd].lt.mint(_bAd, 10000);//gives tokens for the business\r\n\r\n\t}\r\n\r\n\t    /**\r\n     * @dev Registers a new customer\r\n     * @param _firstName first name of customer\r\n     * @param _lastName last name of customer\r\n     * @param _email email of customer\r\n     * @param _cAd address of customer\r\n\r\n     */\r\n  \r\n\tfunction regCustomer(string memory _firstName, string memory _lastName, string memory _email, address _cAd) public {\r\n\t\trequire(msg.sender == owner);\r\n\t\trequire(!customers[_cAd].isReg, \"Customer Registered\");\r\n\t\trequire(!businesses[_cAd].isReg, \"Business Registered\");\r\n\t\tcustomers[_cAd] = Customer(_cAd, _firstName, _lastName, _email, true);\r\n\t}\r\n\r\n\t/**\r\n     * @dev Customer joins business loyalty program\r\n     * @param _bAd address of business\r\n\r\n     */\r\n\r\n\tfunction joinBusiness(address _bAd) public{\r\n\t\trequire(customers[msg.sender].isReg, \"This is not a valid customer account\");//customer only can call this function\r\n\t\trequire(businesses[_bAd].isReg, \"This is not a valid business account\");\r\n\t\tbusinesses[_bAd].cus[msg.sender] = true;//putting customer in business's list and business in the customer's list.\r\n\t\tcustomers[msg.sender].bus[_bAd] = true;\r\n\t}\r\n\r\n\t/**\r\n     * @dev Connect two business to be able to exhange tokens between them. Both businesses must call this function and agree to an exchange rate for inter-business tractions to be carried out.\r\n     * @param _bAd address of business\r\n\t* @param _rate rate of exchange\r\n     */\r\n\r\n\tfunction connectBusiness(address _bAd, uint256 _rate) public{\r\n\t\trequire(businesses[_bAd].isReg, \"This is not a valid business account\");\r\n\t\trequire(businesses[msg.sender].isReg, \"This is not a valid business account\");\r\n\t\tbusinesses[msg.sender].bs[_bAd] = true;\r\n\t\tbusinesses[msg.sender].rate[_bAd] = _rate;\r\n\r\n\r\n\t}\r\n\r\n\r\n\t/**\r\n     * @dev Redeem points. Points are transfered from the customer to the business. This function can only be invoked by a customer\r\n     * Emits an transfer event.\r\n     *@param from_bus Address of Business from whose crypto token is to be redeemed\r\n     *@param to_bus Address of Business to whom the tokens are being sent\r\n     * @param _points Points to be transfered\r\n     */\r\n\r\n\r\n\tfunction spend(address from_bus, address to_bus, uint256 _points) public {\r\n\t\trequire(customers[msg.sender].isReg, \"This is not a valid customer account\");\r\n\t\trequire(businesses[from_bus].isReg, \"This is not a valid business account\");\r\n\t\trequire(businesses[to_bus].isReg, \"This is not a valid business account\");\r\n\t\tif(from_bus==to_bus){\r\n\t\t\t//transaction is with the same business\r\n\t\t\tbusinesses[to_bus].lt.transferFrom(msg.sender, to_bus, _points);\r\n\t\t}\r\n\t\telse{\r\n\t\t\t//requires both businesses to have agreed to the terms\r\n\t\t\trequire(businesses[from_bus].bs[to_bus], \"This is not a valid linked business account\");\r\n\t\t\trequire(businesses[to_bus].bs[from_bus], \"This is not a valid linked business account\");\r\n\t\t\tuint256 _r = businesses[from_bus].rate[to_bus];\r\n\t\t\t//burn from first account(customer) and mint into the reciever's businesses \r\n\t\t\tbusinesses[from_bus].lt.burnFrom(msg.sender, _points);\r\n\t\t\tbusinesses[to_bus].lt.mint(to_bus, _r*_points);\r\n\r\n\t\t}\r\n\r\n\r\n\t}\r\n\r\n\r\n    /**\r\n     * @dev Credit points to a customers account. This function can only be invoked by a business\r\n     * Emits an transfer event.\r\n     * @param _points Points to be transfered\r\n     * @param _cAd Address of Customer\r\n     */\r\n\r\n\tfunction reward(address _cAd, uint256 _points) public{\r\n\t\trequire(businesses[msg.sender].isReg, \"This is not a valid business account\");\r\n\t\trequire(customers[_cAd].isReg, \"This is not a valid customer account\");\r\n\t\trequire(businesses[msg.sender].cus[_cAd], \"This customer has not joined your business\" );\r\n\t\trequire(customers[_cAd].bus[msg.sender], \"This customer has not joined your business\" );\r\n\t\tbusinesses[msg.sender].lt.transferFrom(msg.sender, _cAd, _points);\r\n\t}\r\n\r\n\r\n\r\n\r\n}",
  "sourcePath": "C:\\Users\\pothu\\OneDrive\\Desktop\\loyalty_points\\contracts\\loyalty_overview.sol",
  "compiler": {
    "name": "solc",
    "version": "0.5.16+commit.9c3226ce.Emscripten.clang"
  },
  "schemaVersion": "3.4.15",
  "updatedAt": "2023-08-20T01:13:34.163Z",
  "networkType": "ethereum",
  "devdoc": {
    "details": "Logic for the whole loyalty program system. Each business is assigned its own crypto token. Customers can choose which business loyalty program to join. Businesses can choose to partner up with other businesses. Customers can redeem tokens earned at one businesses at another business provided they have a partnership.",
    "methods": {
      "connectBusiness(address,uint256)": {
        "details": "Connect two business to be able to exhange tokens between them. Both businesses must call this function and agree to an exchange rate for inter-business tractions to be carried out.",
        "params": {
          "_bAd": "address of business",
          "_rate": "rate of exchange"
        }
      },
      "joinBusiness(address)": {
        "details": "Customer joins business loyalty program",
        "params": {
          "_bAd": "address of business"
        }
      },
      "regBusiness(string,string,address,string,uint8)": {
        "details": "Registers a new business",
        "params": {
          "_bAd": "Address business",
          "_bName": "name of business",
          "_decimal": "precision of token",
          "_email": "email of business",
          "_symbol": "of crypto token"
        }
      },
      "regCustomer(string,string,string,address)": {
        "details": "Registers a new customer",
        "params": {
          "_cAd": "address of customer",
          "_email": "email of customer",
          "_firstName": "first name of customer",
          "_lastName": "last name of customer"
        }
      },
      "reward(address,uint256)": {
        "details": "Credit points to a customers account. This function can only be invoked by a business Emits an transfer event.",
        "params": {
          "_cAd": "Address of Customer",
          "_points": "Points to be transfered"
        }
      },
      "spend(address,address,uint256)": {
        "details": "Redeem points. Points are transfered from the customer to the business. This function can only be invoked by a customer Emits an transfer event. param from_bus Address of Business from whose crypto token is to be redeemed param to_bus Address of Business to whom the tokens are being sent",
        "params": {
          "_points": "Points to be transfered"
        }
      }
    }
  },
  "userdoc": {
    "methods": {}
  }
}